:060000000A128A11122809
:10000800FE00030EF0000408F1000A08F200831253
:1000180003137F08F3000A128A15CC2D0A128A11DD
:1000280015280A128A11FB270A128A11F90083136C
:100038002030840044300A128A154124F701F8015F
:1000480083010A128A11052C83120313D4003B087A
:10005800803AFF0080307F02031D342811303A02B5
:10006800031C7128FF3083120313D2005208D400F6
:10007800B601B701B801B901A801A901AC01AD01E8
:10008800AA01AB017730C5008530C6008030D200A8
:100098005208C7000A128A11CB270A128A1109309E
:1000A80083120313C5008630C600C030D200520840
:1000B800C7000A128A11CB270A128A1199308312B3
:1000C8000313C5008530C600D030D2005208C700DF
:1000D8000A128A11CB270A128A1183120313540AAF
:1000E800031915292A3054060319152923305406F3
:1000F800031915290130A8070318A90A0030A90710
:100108002908803AFF0080307F02031D8D280330C4
:1001180028020318AB28831203133708C5003608D2
:10012800C4000A30C6000030C7000A128A15B3247A
:100138000A128A118312031354084407B6000030C8
:10014800031801304507B700AA01AB01E228831262
:1001580003132908803AFF0080307F02031DB62868
:1001680003302802031CE228831203132908803A6B
:10017800FF0080307F02031DC328053028020318C2
:10018800E228831203133908C5003808C4000A306E
:10019800C6000030C7000A128A15B3240A128A1151
:1001A8008312031354084407B800003003180130C1
:1001B8004507B9000130AA000030AB0083120313D1
:1001C8002908803AFF0080307F02031DED280230A5
:1001D80028020318F42883120313AA01AB015F292C
:1001E800831203132908803AFF0080307F02031D21
:1001F800FF2802302802031C5F29831203132908F1
:10020800803AFF0080307F02031D0C290530280248
:1002180003185F29013083120313AA000030AB00D2
:100228005F292A305406031D4E292908803AFF0009
:1002380080307F02031D22290330280203182B294E
:1002480083120313B601B701A801A9015F2983121C
:1002580003132908803AFF0080307F02031D3629E6
:1002680003302802031C5F29831203132908803AEC
:10027800FF0080307F02031D432905302802031840
:100288005F2983120313B801B9010230A8000030B6
:10029800A9005F2923305406031D5F290A128A1515
:1002A8003B240A128A11831203131215071506300C
:1002B800BC000030BD000A3083120313C4000030B4
:1002C800C5003708C7003608C6000A128A151C265A
:1002D8000A128A11831203134408303ED2005208CE
:1002E800C1000A30CC000030CD003708CF003608F6
:1002F800CE000A128A157F250A128A118312031367
:100308004C08303ED2005208C200C3010A30C40073
:100318000030C5003908C7003808C6000A128A1517
:100328001C260A128A11831203134408303ED20095
:100338005208BE000A30CC000030CD003908CF008A
:100348003808CE000A128A157F250A128A118312EC
:1003580003134C08303ED2005208BF00C0010130E0
:10036800AE070318AF0A0030AF071A302E062F0465
:10037800031DE929AE01AF012C082D04031DC62970
:100388000130C7290030D200D3015208AC0053080D
:10039800AD003E30C5000030C600C630D20052085D
:1003A800C7000A128A11CB270A128A114130831218
:1003B8000313C5000030C600C930D2005208C70078
:1003C8000A128A11CB270A128A11831203132C08E6
:1003D8002D04031908000A2A0E30C5008530C6000E
:1003E800C930D2005208C7000A128A11CB27080068
:1003F8000E3083120313C5008530C600C630D20004
:100408005208C7000A128A11CB2708008312031367
:100418002B08003A0319112A1A2A2A08003A031944
:10042800F029013A0319FC291A2A08000800831246
:100438000313D70014303A063B04031D662AFF3025
:10044800D4005408D700A201A301A401A501A0016A
:10045800A101A601A7016630C5008530C60080301D
:10046800D4005408C7000A128A11CB270A128A112D
:100478008C3083120313D4005408D200DF300A12E0
:100488008A1562240A128A11FD3083120313C500EB
:100498008530C600C030D4005408C7000A128A113B
:1004A800CB270A128A11993083120313C5008530AD
:1004B800C600D030D4005408C7000A128A11CB27CE
:1004C8000A128A1183120313570A03199E2A2A3023
:1004D800570603199E2A2330570603199E2A01300E
:1004E800A2070318A30A0030A3072308803AFF00D5
:1004F80080307F02031D822A043022020318752BE4
:10050800831203132108C5002008C4000A30C6005E
:100518000030C7000A128A15B3240A128A118312FE
:10052800031357084407A00000300318013045079B
:10053800A100752B2A305706031DA72AA201A30183
:10054800A001A101752B23305706031D752B0A1234
:100558008A153B240A128A11831203132108803A50
:10056800FF0080307F02031DBB2AFB302002031CE2
:10057800E52ABA3083120313C5008530C600C0309F
:10058800D4005408C7000A128A11CB270A128A110C
:10059800831203138714333083120313D600BB303E
:1005A800D500DF30D400D40BD72AD50BD72AD60BE9
:1005B800D72A8312031387100A128A153B240130A5
:1005C8000800C93083120313C5008530C600803087
:1005D800D4005408C7000A128A11CB270A128A11BC
:1005E800B43083120313B6000030B7001215071594
:1005F800F130C5008530C6009030D4005408C700DB
:100608000A128A11CB270A128A1183120313360899
:1006180037040319732B9B3083120313D400540837
:10062800D2006430C4000030C5003708C70036085F
:10063800C6000A128A151C260A128A11831203138D
:100648004408303E0A128A1562240A128A119C3024
:1006580083120313D4005408D2000A30CC000030AF
:10066800CD000A30C4000030C5003708C70036087E
:10067800C6000A128A151C260A128A11831203134D
:100688004508CF004408CE000A128A157F250A12B1
:100698008A11831203134C08303E0A128A15622409
:1006A8000A128A119D3083120313D4005408D20011
:1006B8000A30CC000030CD003708CF003608CE0015
:1006C8000A128A157F250A128A11831203134C080D
:1006D800303E0A128A1562240A128A11092B003048
:1006E8000800013083120313A6070318A70A003075
:1006F800A7071A3026062704031DF22BA601A70117
:1007080024082504031D8A2B01308B2B0030D400CC
:10071800D5015408A4005508A500C830D4005408D1
:10072800D2006430C4000030C5002108C70020088A
:10073800C6000A128A151C260A128A11831203138C
:100748004408303E0A128A1562240A128A11C930F6
:1007580083120313D4005408D2000A30CC000030AE
:10076800CD000A30C4000030C5002108C7002008A9
:10077800C6000A128A151C260A128A11831203134C
:100788004508CF004408CE000A128A157F250A12B0
:100798008A11831203134C08303E0A128A15622408
:1007A8000A128A11CA3083120313D4005408D200E3
:1007B8000A30CC000030CD002108CF002008CE0040
:1007C8000A128A157F250A128A11831203134C080C
:1007D800303E0A128A1562240A128A118312031300
:1007E800240825040319032C0D30C5008530C600E4
:1007F800C830D4005408C7000A128A11CB27113018
:1008080008000A128A1575240A128A110A128A1512
:10081800E8260A128A110A128A153B240A128A113A
:10082800013083120313BC000030BD0001300A12EE
:100838008A1591240A128A1183120313DB005B08BC
:10084800DE0002303C063D040319EA2C03303C0666
:100858003D040319EA2C04303C063D040319EA2C34
:100868005E03031D692C0230BC000030BD0011304E
:10087800BA000030BB00F4010C300A128A15D624E5
:100888000A128A110A128A153B240A128A11333075
:1008980083120313C5008530C600C030DB005B0837
:1008A800C7000A128A11CB270A128A114D30831207
:1008B8000313DD001930DC004F30DB00DB0B622C4A
:1008C800DC0B622CDD0B622CE52C02308312031347
:1008D8005E06031D7C2C0A128A153B240A128A1113
:1008E800033083120313BC000030BD0012308C2C7F
:1008F80003305E06031D902C0A128A153B240A1247
:100908008A11043083120313BC000030BD00143078
:10091800BA000030BB00EA2C04305E06031DD42C5C
:100928003C033D04031DA22CB801B9011E30B600DA
:100938000030B700121507150630D92C06303C06D2
:100948003D04031DCB2C36081E3EB600370803189D
:10095800013E003EB7003708803AFF0080307F0232
:10096800031DB82C3C303602031CEA2C01308312DC
:100978000313B8070318B90A0030B9073608C43E8C
:10098800B60037080318013EFF3EB700EA2C0830CE
:100998003C063D04031DEA2C121507150530D92C19
:1009A80005305E06031DDD2C0830BC000030BD009C
:1009B800EA2C06305E06031DEA2C0730BC00003026
:1009C800BD000A128A153B240A128A1183120313E6
:1009D8005E080A128A1132270A128A111A2C831207
:1009E800031312149214FA308316031392008C1412
:1009F8008312031312110800203436342E34533472
:100A080074346F347034203420342034203420344B
:100A180020342034203420340034203435342E342B
:100A280050346134753473346534203420342034C0
:100A3800203420342034203420340034203420342E
:100A480050346F3477346534723469346E346734B3
:100A580020344F344E3420342034203400342034B1
:100A680050346F3477346534723420343D34203454
:100A7800393430343034573420342034203400347E
:100A8800203434342E34533474346134723474342E
:100A98002F3452346534733475346D3465342034EE
:100AA800003420344D346934633472346F3477340D
:100AB80061347634653420344F34763465346E349A
:100AC80020340034533445345434203454344534B9
:100AD8004D3450342E3420342834203420344334D8
:100AE80020342934003453344534543420345434B5
:100AF80049344D344534203428344D344D343A3457
:100B0800533453342934003444346F346F347234DA
:100B180020345334743461347434753473343A344F
:100B28004F34503445344E3400342A343A34433444
:100B38004C344534413452342034203423343A344C
:100B480045344E34543445345234003443346F34CD
:100B58006F346B3469346E346734203454346934F8
:100B68006D346534203455345034003420344934DD
:100B78006E34763461346C346934643420345434DB
:100B880065346D3470342E340034203420345034BD
:100B9800723465342D3448346534613474346934BE
:100BA8006E346734003450346C34653461347334D3
:100BB8006534203443346C346F3473346534003412
:100BC80033342E3443346F346E34763465346334BE
:100BD800743469346F346E340034543469346D3489
:100BE80065342034523465346D342E343D34203429
:100BF8000034543445344D34503420343A3420349D
:100C080020343034303430340034543449344D34A2
:100C180045342D342034303430343A3430343034A0
:100C280000342034543449344D34453420343D3470
:100C380020342034003432342E344734723469344A
:100C48006C346C34003431342E344D3469346334AC
:100C580072346F34003434342E3453347434613481
:100C68007234743400340A128A150D250A128A1156
:100C7800153083120313C5008630C6008030D400B7
:100C88005408C7000A128A11CB270A128A110A309F
:100C980083120313C4000030C5003908C7003808A0
:100CA800C6000A128A151C260A128A118312031317
:100CB8004408303ED4005408BE000A30CC0000304E
:100CC800CD003908CF003808CE000A128A157F25D2
:100CD8000A128A11831203134C08303ED4005408B8
:100CE800BF00C0013E30C5000030C6008930D400C6
:100CF8005408C7000A128A11CB270A128A118B30AE
:100D080083120313D4005408D2003A300A128A1509
:100D180062240A128A110A3083120313C4000030B5
:100D2800C5003708C7003608C6000A128A151C26EF
:100D38000A128A11831203134408303ED40054085F
:100D4800C1000A30CC000030CD003708CF0036088B
:100D5800CE000A128A157F250A128A1183120313FC
:100D68004C08303ED4005408C200C3014130C500CD
:100D78000030C6008C30D4005408C7000A128A110B
:100D8800CB270A128A11443083120313C500853019
:100D9800C600C030D4005408C7000A128A11CB27F5
:100DA8000A128A11113083120313C5008530C60058
:100DB8009030D4005408C7000A128A11CB270A12AF
:100DC8008A11003083120313C5008530C600D03065
:100DD800D4005408C7000A128A11CB270A128A11B4
:100DE8008312031338083904031D08003608370432
:100DF800031D0800121107110A128A153B240A1252
:100E08008A11AA3083120313C5008530C600C0308A
:100E1800D4005408C7000A128A11CB270A128A1173
:100E2800831203138714333083120313D600BB30A5
:100E3800D500DF30D400D40B1F2FD50B1F2FD60BB6
:100E48001F2F8312031387100A128A153B240130BF
:100E580083120313BC000030BD0008008312031383
:100E6800DA00A12F0A128A1544250A128A11C02F06
:100E78000A128A1137260A128A11C02F8312031305
:100E88005A080A128A1128200A128A11C02F8312BE
:100E980003135A080A128A1128200A128A11C02F2D
:100EA8008312031330083104031D8E2F5A080A12C7
:100EB8008A111B220A128A1183120313D800D9013E
:100EC8005808B4005908B50034033504031D722FBF
:100ED8000130B2000030B3001430872F34083504D5
:100EE800031D8B2F12110130B2000030B300013006
:100EF800B0000030B1000A128A153B240A128A1188
:100F0800133083120313BA000030BB00C02FB201A4
:100F1800B301C02FB201B3015A080A128A1128205E
:100F28000A128A11C02F12110711C02F12110711AE
:100F38000130BC000030BD00C02F3D08003A031945
:100F4800A62FC02F3C08013A0319362F033A03197C
:100F5800422F013A03194B2F073A0319542F013A2C
:100F680003193C2F033A03193C2F013A03199A2F0E
:100F78000F3A0319972FC02F831203133208330433
:100F8800031D08000F30BA000030BB000800F40150
:100F98008312031347080A128A15D6240A128A11E3
:100FA800831203134608FF00450884000A128A15B5
:100FB80000200A128A11003A03190800F401F40A01
:100FC800831203134608FF00450884000A128A1595
:100FD80000200A128A110A128A15D6240A128A11C6
:100FE800013083120313C5070318C60AD42F01342E
:10100000FF1B0A2883137F1883170008840A03191B
:10101000FF0A08007F087F398A000408840A031940
:04102000FF0A820041
:10187600F40101300A128A15D6240800640080019A
:10188600840A0406031900340406422C8316031343
:101896008801091189100A128A157726080083160D
:1018A60003130608073886000808F03988008113F4
:1018B6008312031388150815881408140800831268
:1018C6000313D300F40152080A128A15D6240A1209
:1018D6008A15F401F40A8312031353080A128A15AF
:1018E600D62408000A128A1549240A128A150A12F1
:1018F6008A1552240A128A150A128A11F3248316AB
:10190600031387108312031387108316031307111B
:101916008312031307110B178B1708008312031387
:10192600C4000A128A1574270A128A15F600760868
:1019360083120313C5004408031DA32C45080800A1
:10194600450A0319AC2C79080319AC2CF901450892
:101956000800450A031DB12CF901F90AFF300800F9
:10196600F401F50183120313441CBF2C4608F40747
:101976000318F50A4708F50701300310C60DC70D11
:10198600FF3E031DC02C01300310C50CC40CFF3EE6
:10199600031DC72C44084504031DB52C7508C50056
:1019A6007408C400080083120313C400741CDF2CDF
:1019B600831203130915E22C831203130911440839
:1019C600F03988008914A630F500F50BE82C0000E4
:1019D60083120313891044080F39F50003300310EE
:1019E600F50DFF3E031DF22C0310750D88008914BA
:1019F600A630F500F50BFD2C0000831203138910A9
:101A06001B30F6009E30F500F50B072DF60B072D63
:101A1600000008008312031386193E2D8714071150
:101A260012110A128A153B240A128A15883083126B
:101A36000313C5008530C600C030C8004808C7007B
:101A46000A128A11CB270A128A15D730831203137A
:101A5600C5008530C6009030C8004808C7000A1285
:101A66008A11CB270A128A1583120313861D372D76
:101A76000A128A153B2483120313121587100715C1
:101A86000800273083120313C5008630C600803055
:101A9600C8004808C7000A128A11CB270A128A15FD
:101AA6001F3083120313C5008630C600C030C8003D
:101AB6004808C7000A128A11CB270A128A15E43091
:101AC60083120313C5008530C6009030C80048084D
:101AD600C7000A128A11CB270A128A152F308312E1
:101AE6000313C5008630C600D030C8004808C700BA
:101AF6000A128A11CB27080083120313D101CF1FC4
:101B06008B2DCE09CF09CE0A0319CF0AD101D10AEE
:101B1600CD1F922DCC09CD09CC0A0319CD0A4C084C
:101B26004D040319BF2DD001D00ACD1BA62D0130BF
:101B36000310CC0DCD0DFF3E031D9B2D0130F5008E
:101B46007508D007982D4D084F02031DAC2D4C0883
:101B56004E02031CB42D4C08CE024D08031CCF03C5
:101B6600CF0201300310CD0CCC0CFF3E031DB52D6A
:101B76000130D002031DA62D51080319C72DCE0929
:101B8600CF09CE0A0319CF0A4F08CD004E08CC0064
:101B960008008C1C112E0130F7070318F80A0030D4
:101BA600F807E2307706043003197806031D0E2E77
:101BB600F701F8013708803AFF0080307F02031DE5
:101BC600E62D01303602031CF12DFF30831203137C
:101BD600B6070318B70AFF30B7070E2E8312031392
:101BE60036083704031D0E2E3908803AFF00803070
:101BF6007F02031D002E01303802031C0E2EFF301B
:101C060083120313B8070318B90AFF30B9073B302C
:101C1600B6000030B700831203138C107308FF0060
:101C260072088A0071088400700E8300FE0E7E0E14
:101C3600090083120313C901C51F282EC409C5094B
:101C4600C40A0319C50AC901C90AC71F332EC60922
:101C5600C709C60A0319C70A0130F4007408C90681
:101C6600CA01CB014408450403196A2EC801C80AF3
:101C7600C51B492E01300310C40DC50DFF3E031DC3
:101C86003E2E0130F4007408C8073B2E01300310C5
:101C9600CA0DCB0DFF3E031D4A2E45084702031D04
:101CA600562E44084602031C5F2E4408C602450809
:101CB600031CC703C7024A1401300310C50CC40C29
:101CC600FF3E031D602E0130C802031D492E490840
:101CD6000319722ECA09CB09CA0A0319CB0A4B0883
:101CE600C5004A08C4000800C33083120313C600A7
:101CF600CC30C500C50B7D2EC60B7D2E0000F40131
:101D060030300A128A15D6240A128A151B3083121D
:101D16000313C6009D30C500C50B8F2EC60B8F2E34
:101D2600942EF40130300A128A15D6240A128A1526
:101D3600A53083120313C500C50B9F2EA22EF401F6
:101D460030300A128A15D6240A128A15AA2EAB2E0C
:101D56000000F40102300A128A15D6240A128A15E6
:101D6600A53083120313C500C50BB72EBA2EF40196
:101D760028300A128A15D6240A128A15A53083122B
:101D86000313C500C50BC52EC82EF40101300A1277
:101D96008A15D6240A128A15043083120313C60044
:101DA6003D30C500C50BD52EC60BD52EF4010C3023
:101DB6000A128A15D6240A128A15A530831203132D
:101DC600C500C50BE42EE72E080083120313D701C6
:101DD600D8015808803AFF0080307F02031DF52E97
:101DE600103057020318172F831203135708803E2B
:101DF600D4005408D200FF300A128A1562240A124F
:101E06008A15013083120313D7070318D80A003046
:101E1600D8075808803AFF0080307F02031D152F2F
:101E260010305702031CF72E223083120313C5000D
:101E36008530C600C030D4005408C7000A128A1183
:101E4600CB270A128A15553083120313C500853035
:101E5600C6009030D4005408C7000A128A11CB2756
:101E66000A128A1583120313D901DA015A08803A35
:101E7600FF0080307F02031D422F103059020318E5
:101E8600642F831203135908D03ED4005408D2009D
:101E9600FF300A128A1562240A128A15013083124B
:101EA6000313D9070318DA0A0030DA075A08803A0A
:101EB600FF0080307F02031D622F10305902031C81
:101EC600442F273083120313D6000D30D50025305A
:101ED600D400D40B6C2FD50B6C2FD60B6C2F732F15
:101EE6000800831203138811081588140814643037
:101EF600F4000030F500FF30F4070318F50AFF3050
:101F0600F507740A031D7E2F750A031D7E2F8312A3
:101F160003130618902F013008008618942F0230FC
:101F260008000619982F0330080088150811881430
:101F360008146430F4000030F500FF30F40703188D
:101F4600F50AFF30F507740A031DA02F750A031D55
:101F5600A02F831203130618B22F04300800861828
:101F6600B62F053008000619BA2F06300800881566
:101F76000815881008146430F4000030F500FF30AE
:101F8600F4070318F50AFF30F507740A031DC22F7C
:101F9600750A031DC22F831203130618D42F0730A8
:101FA60008008618D82F083008000619DC2F0930DB
:101FB600080088150815881408106430F4000030ED
:101FC600F500FF30F4070318F50AFF30F507740A29
:101FD600031DE42F750A031DE42F8312031306184D
:101FE600F62F2A3008008618FA2F00300800061946
:0A1FF600FE2F23300800FF30080022
:02400E00FB3F76
:00000001FF
